{
  "contractName": "NFTMinter",
  "abi": [
    {
      "inputs": [],
      "stateMutability": "nonpayable",
      "type": "constructor"
    },
    {
      "anonymous": false,
      "inputs": [
        {
          "indexed": true,
          "internalType": "address",
          "name": "owner",
          "type": "address"
        },
        {
          "indexed": true,
          "internalType": "address",
          "name": "approved",
          "type": "address"
        },
        {
          "indexed": true,
          "internalType": "uint256",
          "name": "tokenId",
          "type": "uint256"
        }
      ],
      "name": "Approval",
      "type": "event"
    },
    {
      "anonymous": false,
      "inputs": [
        {
          "indexed": true,
          "internalType": "address",
          "name": "owner",
          "type": "address"
        },
        {
          "indexed": true,
          "internalType": "address",
          "name": "operator",
          "type": "address"
        },
        {
          "indexed": false,
          "internalType": "bool",
          "name": "approved",
          "type": "bool"
        }
      ],
      "name": "ApprovalForAll",
      "type": "event"
    },
    {
      "anonymous": false,
      "inputs": [
        {
          "indexed": true,
          "internalType": "address",
          "name": "from",
          "type": "address"
        },
        {
          "indexed": true,
          "internalType": "address",
          "name": "to",
          "type": "address"
        },
        {
          "indexed": true,
          "internalType": "uint256",
          "name": "tokenId",
          "type": "uint256"
        }
      ],
      "name": "Transfer",
      "type": "event"
    },
    {
      "inputs": [
        {
          "internalType": "address",
          "name": "to",
          "type": "address"
        },
        {
          "internalType": "uint256",
          "name": "tokenId",
          "type": "uint256"
        }
      ],
      "name": "approve",
      "outputs": [],
      "stateMutability": "nonpayable",
      "type": "function"
    },
    {
      "inputs": [
        {
          "internalType": "address",
          "name": "owner",
          "type": "address"
        }
      ],
      "name": "balanceOf",
      "outputs": [
        {
          "internalType": "uint256",
          "name": "",
          "type": "uint256"
        }
      ],
      "stateMutability": "view",
      "type": "function"
    },
    {
      "inputs": [
        {
          "internalType": "uint256",
          "name": "tokenId",
          "type": "uint256"
        }
      ],
      "name": "getApproved",
      "outputs": [
        {
          "internalType": "address",
          "name": "",
          "type": "address"
        }
      ],
      "stateMutability": "view",
      "type": "function"
    },
    {
      "inputs": [
        {
          "internalType": "address",
          "name": "owner",
          "type": "address"
        },
        {
          "internalType": "address",
          "name": "operator",
          "type": "address"
        }
      ],
      "name": "isApprovedForAll",
      "outputs": [
        {
          "internalType": "bool",
          "name": "",
          "type": "bool"
        }
      ],
      "stateMutability": "view",
      "type": "function"
    },
    {
      "inputs": [],
      "name": "name",
      "outputs": [
        {
          "internalType": "string",
          "name": "",
          "type": "string"
        }
      ],
      "stateMutability": "view",
      "type": "function"
    },
    {
      "inputs": [
        {
          "internalType": "uint256",
          "name": "tokenId",
          "type": "uint256"
        }
      ],
      "name": "ownerOf",
      "outputs": [
        {
          "internalType": "address",
          "name": "",
          "type": "address"
        }
      ],
      "stateMutability": "view",
      "type": "function"
    },
    {
      "inputs": [
        {
          "internalType": "address",
          "name": "from",
          "type": "address"
        },
        {
          "internalType": "address",
          "name": "to",
          "type": "address"
        },
        {
          "internalType": "uint256",
          "name": "tokenId",
          "type": "uint256"
        }
      ],
      "name": "safeTransferFrom",
      "outputs": [],
      "stateMutability": "nonpayable",
      "type": "function"
    },
    {
      "inputs": [
        {
          "internalType": "address",
          "name": "from",
          "type": "address"
        },
        {
          "internalType": "address",
          "name": "to",
          "type": "address"
        },
        {
          "internalType": "uint256",
          "name": "tokenId",
          "type": "uint256"
        },
        {
          "internalType": "bytes",
          "name": "_data",
          "type": "bytes"
        }
      ],
      "name": "safeTransferFrom",
      "outputs": [],
      "stateMutability": "nonpayable",
      "type": "function"
    },
    {
      "inputs": [
        {
          "internalType": "address",
          "name": "operator",
          "type": "address"
        },
        {
          "internalType": "bool",
          "name": "approved",
          "type": "bool"
        }
      ],
      "name": "setApprovalForAll",
      "outputs": [],
      "stateMutability": "nonpayable",
      "type": "function"
    },
    {
      "inputs": [
        {
          "internalType": "bytes4",
          "name": "interfaceId",
          "type": "bytes4"
        }
      ],
      "name": "supportsInterface",
      "outputs": [
        {
          "internalType": "bool",
          "name": "",
          "type": "bool"
        }
      ],
      "stateMutability": "view",
      "type": "function"
    },
    {
      "inputs": [],
      "name": "symbol",
      "outputs": [
        {
          "internalType": "string",
          "name": "",
          "type": "string"
        }
      ],
      "stateMutability": "view",
      "type": "function"
    },
    {
      "inputs": [
        {
          "internalType": "uint256",
          "name": "tokenId",
          "type": "uint256"
        }
      ],
      "name": "tokenURI",
      "outputs": [
        {
          "internalType": "string",
          "name": "",
          "type": "string"
        }
      ],
      "stateMutability": "view",
      "type": "function"
    },
    {
      "inputs": [
        {
          "internalType": "address",
          "name": "from",
          "type": "address"
        },
        {
          "internalType": "address",
          "name": "to",
          "type": "address"
        },
        {
          "internalType": "uint256",
          "name": "tokenId",
          "type": "uint256"
        }
      ],
      "name": "transferFrom",
      "outputs": [],
      "stateMutability": "nonpayable",
      "type": "function"
    },
    {
      "inputs": [
        {
          "internalType": "string",
          "name": "tokenURI",
          "type": "string"
        }
      ],
      "name": "mint",
      "outputs": [
        {
          "internalType": "uint256",
          "name": "",
          "type": "uint256"
        }
      ],
      "stateMutability": "nonpayable",
      "type": "function"
    },
    {
      "inputs": [],
      "name": "totalSupply",
      "outputs": [
        {
          "internalType": "uint256",
          "name": "",
          "type": "uint256"
        }
      ],
      "stateMutability": "view",
      "type": "function"
    }
  ],
  "bytecode": "0x60806040523480156200001157600080fd5b506040518060400160405280600881526020017f4e667456657273650000000000000000000000000000000000000000000000008152506040518060400160405280600281526020017f4e56000000000000000000000000000000000000000000000000000000000000815250816000908051906020019062000096929190620000b8565b508060019080519060200190620000af929190620000b8565b505050620001cd565b828054620000c69062000197565b90600052602060002090601f016020900481019282620000ea576000855562000136565b82601f106200010557805160ff191683800117855562000136565b8280016001018555821562000136579182015b828111156200013557825182559160200191906001019062000118565b5b50905062000145919062000149565b5090565b5b80821115620001645760008160009055506001016200014a565b5090565b7f4e487b7100000000000000000000000000000000000000000000000000000000600052602260045260246000fd5b60006002820490506001821680620001b057607f821691505b60208210811415620001c757620001c662000168565b5b50919050565b612a5180620001dd6000396000f3fe608060405234801561001057600080fd5b50600436106100f55760003560e01c80636352211e11610097578063b88d4fde11610066578063b88d4fde14610284578063c87b56dd146102a0578063d85d3d27146102d0578063e985e9c514610300576100f5565b80636352211e146101ea57806370a082311461021a57806395d89b411461024a578063a22cb46514610268576100f5565b8063095ea7b3116100d3578063095ea7b31461017857806318160ddd1461019457806323b872dd146101b257806342842e0e146101ce576100f5565b806301ffc9a7146100fa57806306fdde031461012a578063081812fc14610148575b600080fd5b610114600480360381019061010f9190611858565b610330565b60405161012191906118a0565b60405180910390f35b610132610412565b60405161013f9190611954565b60405180910390f35b610162600480360381019061015d91906119ac565b6104a4565b60405161016f9190611a1a565b60405180910390f35b610192600480360381019061018d9190611a61565b610529565b005b61019c610641565b6040516101a99190611ab0565b60405180910390f35b6101cc60048036038101906101c79190611acb565b610652565b005b6101e860048036038101906101e39190611acb565b6106b2565b005b61020460048036038101906101ff91906119ac565b6106d2565b6040516102119190611a1a565b60405180910390f35b610234600480360381019061022f9190611b1e565b610784565b6040516102419190611ab0565b60405180910390f35b61025261083c565b60405161025f9190611954565b60405180910390f35b610282600480360381019061027d9190611b77565b6108ce565b005b61029e60048036038101906102999190611cec565b6108e4565b005b6102ba60048036038101906102b591906119ac565b610946565b6040516102c79190611954565b60405180910390f35b6102ea60048036038101906102e59190611e10565b6109ed565b6040516102f79190611ab0565b60405180910390f35b61031a60048036038101906103159190611e59565b610a24565b60405161032791906118a0565b60405180910390f35b60007f80ac58cd000000000000000000000000000000000000000000000000000000007bffffffffffffffffffffffffffffffffffffffffffffffffffffffff1916827bffffffffffffffffffffffffffffffffffffffffffffffffffffffff191614806103fb57507f5b5e139f000000000000000000000000000000000000000000000000000000007bffffffffffffffffffffffffffffffffffffffffffffffffffffffff1916827bffffffffffffffffffffffffffffffffffffffffffffffffffffffff1916145b8061040b575061040a82610ab8565b5b9050919050565b60606000805461042190611ec8565b80601f016020809104026020016040519081016040528092919081815260200182805461044d90611ec8565b801561049a5780601f1061046f5761010080835404028352916020019161049a565b820191906000526020600020905b81548152906001019060200180831161047d57829003601f168201915b5050505050905090565b60006104af82610b22565b6104ee576040517f08c379a00000000000000000000000000000000000000000000000000000000081526004016104e590611f6c565b60405180910390fd5b6004600083815260200190815260200160002060009054906101000a900473ffffffffffffffffffffffffffffffffffffffff169050919050565b6000610534826106d2565b90508073ffffffffffffffffffffffffffffffffffffffff168373ffffffffffffffffffffffffffffffffffffffff1614156105a5576040517f08c379a000000000000000000000000000000000000000000000000000000000815260040161059c90611ffe565b60405180910390fd5b8073ffffffffffffffffffffffffffffffffffffffff166105c4610b8e565b73ffffffffffffffffffffffffffffffffffffffff1614806105f357506105f2816105ed610b8e565b610a24565b5b610632576040517f08c379a000000000000000000000000000000000000000000000000000000000815260040161062990612090565b60405180910390fd5b61063c8383610b96565b505050565b600061064d6006610c4f565b905090565b61066361065d610b8e565b82610c5d565b6106a2576040517f08c379a000000000000000000000000000000000000000000000000000000000815260040161069990612122565b60405180910390fd5b6106ad838383610d3b565b505050565b6106cd838383604051806020016040528060008152506108e4565b505050565b6000806002600084815260200190815260200160002060009054906101000a900473ffffffffffffffffffffffffffffffffffffffff169050600073ffffffffffffffffffffffffffffffffffffffff168173ffffffffffffffffffffffffffffffffffffffff16141561077b576040517f08c379a0000000000000000000000000000000000000000000000000000000008152600401610772906121b4565b60405180910390fd5b80915050919050565b60008073ffffffffffffffffffffffffffffffffffffffff168273ffffffffffffffffffffffffffffffffffffffff1614156107f5576040517f08c379a00000000000000000000000000000000000000000000000000000000081526004016107ec90612246565b60405180910390fd5b600360008373ffffffffffffffffffffffffffffffffffffffff1673ffffffffffffffffffffffffffffffffffffffff168152602001908152602001600020549050919050565b60606001805461084b90611ec8565b80601f016020809104026020016040519081016040528092919081815260200182805461087790611ec8565b80156108c45780601f10610899576101008083540402835291602001916108c4565b820191906000526020600020905b8154815290600101906020018083116108a757829003601f168201915b5050505050905090565b6108e06108d9610b8e565b8383610f97565b5050565b6108f56108ef610b8e565b83610c5d565b610934576040517f08c379a000000000000000000000000000000000000000000000000000000000815260040161092b90612122565b60405180910390fd5b61094084848484611104565b50505050565b606061095182610b22565b610990576040517f08c379a0000000000000000000000000000000000000000000000000000000008152600401610987906122d8565b60405180910390fd5b600061099a611160565b905060008151116109ba57604051806020016040528060008152506109e5565b806109c484611177565b6040516020016109d5929190612334565b6040516020818303038152906040525b915050919050565b60006109f960066112d8565b6000610a056006610c4f565b9050610a1133826112ee565b610a1b818461130c565b80915050919050565b6000600560008473ffffffffffffffffffffffffffffffffffffffff1673ffffffffffffffffffffffffffffffffffffffff16815260200190815260200160002060008373ffffffffffffffffffffffffffffffffffffffff1673ffffffffffffffffffffffffffffffffffffffff16815260200190815260200160002060009054906101000a900460ff16905092915050565b60007f01ffc9a7000000000000000000000000000000000000000000000000000000007bffffffffffffffffffffffffffffffffffffffffffffffffffffffff1916827bffffffffffffffffffffffffffffffffffffffffffffffffffffffff1916149050919050565b60008073ffffffffffffffffffffffffffffffffffffffff166002600084815260200190815260200160002060009054906101000a900473ffffffffffffffffffffffffffffffffffffffff1673ffffffffffffffffffffffffffffffffffffffff1614159050919050565b600033905090565b816004600083815260200190815260200160002060006101000a81548173ffffffffffffffffffffffffffffffffffffffff021916908373ffffffffffffffffffffffffffffffffffffffff160217905550808273ffffffffffffffffffffffffffffffffffffffff16610c09836106d2565b73ffffffffffffffffffffffffffffffffffffffff167f8c5be1e5ebec7d5bd14f71427d1e84f3dd0314c0f7b2291e5b200ac8c7c3b92560405160405180910390a45050565b600081600001549050919050565b6000610c6882610b22565b610ca7576040517f08c379a0000000000000000000000000000000000000000000000000000000008152600401610c9e906123ca565b60405180910390fd5b6000610cb2836106d2565b90508073ffffffffffffffffffffffffffffffffffffffff168473ffffffffffffffffffffffffffffffffffffffff161480610d2157508373ffffffffffffffffffffffffffffffffffffffff16610d09846104a4565b73ffffffffffffffffffffffffffffffffffffffff16145b80610d325750610d318185610a24565b5b91505092915050565b8273ffffffffffffffffffffffffffffffffffffffff16610d5b826106d2565b73ffffffffffffffffffffffffffffffffffffffff1614610db1576040517f08c379a0000000000000000000000000000000000000000000000000000000008152600401610da89061245c565b60405180910390fd5b600073ffffffffffffffffffffffffffffffffffffffff168273ffffffffffffffffffffffffffffffffffffffff161415610e21576040517f08c379a0000000000000000000000000000000000000000000000000000000008152600401610e18906124ee565b60405180910390fd5b610e2c838383611380565b610e37600082610b96565b6001600360008573ffffffffffffffffffffffffffffffffffffffff1673ffffffffffffffffffffffffffffffffffffffff1681526020019081526020016000206000828254610e87919061253d565b925050819055506001600360008473ffffffffffffffffffffffffffffffffffffffff1673ffffffffffffffffffffffffffffffffffffffff1681526020019081526020016000206000828254610ede9190612571565b92505081905550816002600083815260200190815260200160002060006101000a81548173ffffffffffffffffffffffffffffffffffffffff021916908373ffffffffffffffffffffffffffffffffffffffff160217905550808273ffffffffffffffffffffffffffffffffffffffff168473ffffffffffffffffffffffffffffffffffffffff167fddf252ad1be2c89b69c2b068fc378daa952ba7f163c4a11628f55a4df523b3ef60405160405180910390a4505050565b8173ffffffffffffffffffffffffffffffffffffffff168373ffffffffffffffffffffffffffffffffffffffff161415611006576040517f08c379a0000000000000000000000000000000000000000000000000000000008152600401610ffd90612613565b60405180910390fd5b80600560008573ffffffffffffffffffffffffffffffffffffffff1673ffffffffffffffffffffffffffffffffffffffff16815260200190815260200160002060008473ffffffffffffffffffffffffffffffffffffffff1673ffffffffffffffffffffffffffffffffffffffff16815260200190815260200160002060006101000a81548160ff0219169083151502179055508173ffffffffffffffffffffffffffffffffffffffff168373ffffffffffffffffffffffffffffffffffffffff167f17307eab39ab6107e8899845ad3d59bd9653f200f220920489ca2b5937696c31836040516110f791906118a0565b60405180910390a3505050565b61110f848484610d3b565b61111b84848484611385565b61115a576040517f08c379a0000000000000000000000000000000000000000000000000000000008152600401611151906126a5565b60405180910390fd5b50505050565b606060405180602001604052806000815250905090565b606060008214156111bf576040518060400160405280600181526020017f300000000000000000000000000000000000000000000000000000000000000081525090506112d3565b600082905060005b600082146111f15780806111da906126c5565b915050600a826111ea919061273d565b91506111c7565b60008167ffffffffffffffff81111561120d5761120c611bc1565b5b6040519080825280601f01601f19166020018201604052801561123f5781602001600182028036833780820191505090505b5090505b600085146112cc57600182611258919061253d565b9150600a85611267919061276e565b60306112739190612571565b60f81b8183815181106112895761128861279f565b5b60200101907effffffffffffffffffffffffffffffffffffffffffffffffffffffffffffff1916908160001a905350600a856112c5919061273d565b9450611243565b8093505050505b919050565b6001816000016000828254019250508190555050565b61130882826040518060200160405280600081525061150d565b5050565b61131582610b22565b611354576040517f08c379a000000000000000000000000000000000000000000000000000000000815260040161134b90612840565b60405180910390fd5b8060076000848152602001908152602001600020908051906020019061137b929190611749565b505050565b505050565b60006113a68473ffffffffffffffffffffffffffffffffffffffff16611568565b15611500578373ffffffffffffffffffffffffffffffffffffffff1663150b7a026113cf610b8e565b8786866040518563ffffffff1660e01b81526004016113f194939291906128b5565b6020604051808303816000875af192505050801561142d57506040513d601f19601f8201168201806040525081019061142a9190612916565b60015b6114b0573d806000811461145d576040519150601f19603f3d011682016040523d82523d6000602084013e611462565b606091505b506000815114156114a8576040517f08c379a000000000000000000000000000000000000000000000000000000000815260040161149f906126a5565b60405180910390fd5b805181602001fd5b63150b7a0260e01b7bffffffffffffffffffffffffffffffffffffffffffffffffffffffff1916817bffffffffffffffffffffffffffffffffffffffffffffffffffffffff191614915050611505565b600190505b949350505050565b611517838361157b565b6115246000848484611385565b611563576040517f08c379a000000000000000000000000000000000000000000000000000000000815260040161155a906126a5565b60405180910390fd5b505050565b600080823b905060008111915050919050565b600073ffffffffffffffffffffffffffffffffffffffff168273ffffffffffffffffffffffffffffffffffffffff1614156115eb576040517f08c379a00000000000000000000000000000000000000000000000000000000081526004016115e29061298f565b60405180910390fd5b6115f481610b22565b15611634576040517f08c379a000000000000000000000000000000000000000000000000000000000815260040161162b906129fb565b60405180910390fd5b61164060008383611380565b6001600360008473ffffffffffffffffffffffffffffffffffffffff1673ffffffffffffffffffffffffffffffffffffffff16815260200190815260200160002060008282546116909190612571565b92505081905550816002600083815260200190815260200160002060006101000a81548173ffffffffffffffffffffffffffffffffffffffff021916908373ffffffffffffffffffffffffffffffffffffffff160217905550808273ffffffffffffffffffffffffffffffffffffffff16600073ffffffffffffffffffffffffffffffffffffffff167fddf252ad1be2c89b69c2b068fc378daa952ba7f163c4a11628f55a4df523b3ef60405160405180910390a45050565b82805461175590611ec8565b90600052602060002090601f01602090048101928261177757600085556117be565b82601f1061179057805160ff19168380011785556117be565b828001600101855582156117be579182015b828111156117bd5782518255916020019190600101906117a2565b5b5090506117cb91906117cf565b5090565b5b808211156117e85760008160009055506001016117d0565b5090565b6000604051905090565b600080fd5b600080fd5b60007fffffffff0000000000000000000000000000000000000000000000000000000082169050919050565b61183581611800565b811461184057600080fd5b50565b6000813590506118528161182c565b92915050565b60006020828403121561186e5761186d6117f6565b5b600061187c84828501611843565b91505092915050565b60008115159050919050565b61189a81611885565b82525050565b60006020820190506118b56000830184611891565b92915050565b600081519050919050565b600082825260208201905092915050565b60005b838110156118f55780820151818401526020810190506118da565b83811115611904576000848401525b50505050565b6000601f19601f8301169050919050565b6000611926826118bb565b61193081856118c6565b93506119408185602086016118d7565b6119498161190a565b840191505092915050565b6000602082019050818103600083015261196e818461191b565b905092915050565b6000819050919050565b61198981611976565b811461199457600080fd5b50565b6000813590506119a681611980565b92915050565b6000602082840312156119c2576119c16117f6565b5b60006119d084828501611997565b91505092915050565b600073ffffffffffffffffffffffffffffffffffffffff82169050919050565b6000611a04826119d9565b9050919050565b611a14816119f9565b82525050565b6000602082019050611a2f6000830184611a0b565b92915050565b611a3e816119f9565b8114611a4957600080fd5b50565b600081359050611a5b81611a35565b92915050565b60008060408385031215611a7857611a776117f6565b5b6000611a8685828601611a4c565b9250506020611a9785828601611997565b9150509250929050565b611aaa81611976565b82525050565b6000602082019050611ac56000830184611aa1565b92915050565b600080600060608486031215611ae457611ae36117f6565b5b6000611af286828701611a4c565b9350506020611b0386828701611a4c565b9250506040611b1486828701611997565b9150509250925092565b600060208284031215611b3457611b336117f6565b5b6000611b4284828501611a4c565b91505092915050565b611b5481611885565b8114611b5f57600080fd5b50565b600081359050611b7181611b4b565b92915050565b60008060408385031215611b8e57611b8d6117f6565b5b6000611b9c85828601611a4c565b9250506020611bad85828601611b62565b9150509250929050565b600080fd5b600080fd5b7f4e487b7100000000000000000000000000000000000000000000000000000000600052604160045260246000fd5b611bf98261190a565b810181811067ffffffffffffffff82111715611c1857611c17611bc1565b5b80604052505050565b6000611c2b6117ec565b9050611c378282611bf0565b919050565b600067ffffffffffffffff821115611c5757611c56611bc1565b5b611c608261190a565b9050602081019050919050565b82818337600083830152505050565b6000611c8f611c8a84611c3c565b611c21565b905082815260208101848484011115611cab57611caa611bbc565b5b611cb6848285611c6d565b509392505050565b600082601f830112611cd357611cd2611bb7565b5b8135611ce3848260208601611c7c565b91505092915050565b60008060008060808587031215611d0657611d056117f6565b5b6000611d1487828801611a4c565b9450506020611d2587828801611a4c565b9350506040611d3687828801611997565b925050606085013567ffffffffffffffff811115611d5757611d566117fb565b5b611d6387828801611cbe565b91505092959194509250565b600067ffffffffffffffff821115611d8a57611d89611bc1565b5b611d938261190a565b9050602081019050919050565b6000611db3611dae84611d6f565b611c21565b905082815260208101848484011115611dcf57611dce611bbc565b5b611dda848285611c6d565b509392505050565b600082601f830112611df757611df6611bb7565b5b8135611e07848260208601611da0565b91505092915050565b600060208284031215611e2657611e256117f6565b5b600082013567ffffffffffffffff811115611e4457611e436117fb565b5b611e5084828501611de2565b91505092915050565b60008060408385031215611e7057611e6f6117f6565b5b6000611e7e85828601611a4c565b9250506020611e8f85828601611a4c565b9150509250929050565b7f4e487b7100000000000000000000000000000000000000000000000000000000600052602260045260246000fd5b60006002820490506001821680611ee057607f821691505b60208210811415611ef457611ef3611e99565b5b50919050565b7f4552433732313a20617070726f76656420717565727920666f72206e6f6e657860008201527f697374656e7420746f6b656e0000000000000000000000000000000000000000602082015250565b6000611f56602c836118c6565b9150611f6182611efa565b604082019050919050565b60006020820190508181036000830152611f8581611f49565b9050919050565b7f4552433732313a20617070726f76616c20746f2063757272656e74206f776e6560008201527f7200000000000000000000000000000000000000000000000000000000000000602082015250565b6000611fe86021836118c6565b9150611ff382611f8c565b604082019050919050565b6000602082019050818103600083015261201781611fdb565b9050919050565b7f4552433732313a20617070726f76652063616c6c6572206973206e6f74206f7760008201527f6e6572206e6f7220617070726f76656420666f7220616c6c0000000000000000602082015250565b600061207a6038836118c6565b91506120858261201e565b604082019050919050565b600060208201905081810360008301526120a98161206d565b9050919050565b7f4552433732313a207472616e736665722063616c6c6572206973206e6f74206f60008201527f776e6572206e6f7220617070726f766564000000000000000000000000000000602082015250565b600061210c6031836118c6565b9150612117826120b0565b604082019050919050565b6000602082019050818103600083015261213b816120ff565b9050919050565b7f4552433732313a206f776e657220717565727920666f72206e6f6e657869737460008201527f656e7420746f6b656e0000000000000000000000000000000000000000000000602082015250565b600061219e6029836118c6565b91506121a982612142565b604082019050919050565b600060208201905081810360008301526121cd81612191565b9050919050565b7f4552433732313a2062616c616e636520717565727920666f7220746865207a6560008201527f726f206164647265737300000000000000000000000000000000000000000000602082015250565b6000612230602a836118c6565b915061223b826121d4565b604082019050919050565b6000602082019050818103600083015261225f81612223565b9050919050565b7f4552433732314d657461646174613a2055524920717565727920666f72206e6f60008201527f6e6578697374656e7420746f6b656e0000000000000000000000000000000000602082015250565b60006122c2602f836118c6565b91506122cd82612266565b604082019050919050565b600060208201905081810360008301526122f1816122b5565b9050919050565b600081905092915050565b600061230e826118bb565b61231881856122f8565b93506123288185602086016118d7565b80840191505092915050565b60006123408285612303565b915061234c8284612303565b91508190509392505050565b7f4552433732313a206f70657261746f7220717565727920666f72206e6f6e657860008201527f697374656e7420746f6b656e0000000000000000000000000000000000000000602082015250565b60006123b4602c836118c6565b91506123bf82612358565b604082019050919050565b600060208201905081810360008301526123e3816123a7565b9050919050565b7f4552433732313a207472616e73666572206f6620746f6b656e2074686174206960008201527f73206e6f74206f776e0000000000000000000000000000000000000000000000602082015250565b60006124466029836118c6565b9150612451826123ea565b604082019050919050565b6000602082019050818103600083015261247581612439565b9050919050565b7f4552433732313a207472616e7366657220746f20746865207a65726f2061646460008201527f7265737300000000000000000000000000000000000000000000000000000000602082015250565b60006124d86024836118c6565b91506124e38261247c565b604082019050919050565b60006020820190508181036000830152612507816124cb565b9050919050565b7f4e487b7100000000000000000000000000000000000000000000000000000000600052601160045260246000fd5b600061254882611976565b915061255383611976565b9250828210156125665761256561250e565b5b828203905092915050565b600061257c82611976565b915061258783611976565b9250827fffffffffffffffffffffffffffffffffffffffffffffffffffffffffffffffff038211156125bc576125bb61250e565b5b828201905092915050565b7f4552433732313a20617070726f766520746f2063616c6c657200000000000000600082015250565b60006125fd6019836118c6565b9150612608826125c7565b602082019050919050565b6000602082019050818103600083015261262c816125f0565b9050919050565b7f4552433732313a207472616e7366657220746f206e6f6e20455243373231526560008201527f63656976657220696d706c656d656e7465720000000000000000000000000000602082015250565b600061268f6032836118c6565b915061269a82612633565b604082019050919050565b600060208201905081810360008301526126be81612682565b9050919050565b60006126d082611976565b91507fffffffffffffffffffffffffffffffffffffffffffffffffffffffffffffffff8214156127035761270261250e565b5b600182019050919050565b7f4e487b7100000000000000000000000000000000000000000000000000000000600052601260045260246000fd5b600061274882611976565b915061275383611976565b9250826127635761276261270e565b5b828204905092915050565b600061277982611976565b915061278483611976565b9250826127945761279361270e565b5b828206905092915050565b7f4e487b7100000000000000000000000000000000000000000000000000000000600052603260045260246000fd5b7f4552433732314d657461646174613a2055524920736574206f66206e6f6e657860008201527f697374656e7420746f6b656e0000000000000000000000000000000000000000602082015250565b600061282a602c836118c6565b9150612835826127ce565b604082019050919050565b600060208201905081810360008301526128598161281d565b9050919050565b600081519050919050565b600082825260208201905092915050565b600061288782612860565b612891818561286b565b93506128a18185602086016118d7565b6128aa8161190a565b840191505092915050565b60006080820190506128ca6000830187611a0b565b6128d76020830186611a0b565b6128e46040830185611aa1565b81810360608301526128f6818461287c565b905095945050505050565b6000815190506129108161182c565b92915050565b60006020828403121561292c5761292b6117f6565b5b600061293a84828501612901565b91505092915050565b7f4552433732313a206d696e7420746f20746865207a65726f2061646472657373600082015250565b60006129796020836118c6565b915061298482612943565b602082019050919050565b600060208201905081810360008301526129a88161296c565b9050919050565b7f4552433732313a20746f6b656e20616c7265616479206d696e74656400000000600082015250565b60006129e5601c836118c6565b91506129f0826129af565b602082019050919050565b60006020820190508181036000830152612a14816129d8565b905091905056fea264697066735822122058d7536ed9fa39b6f55afabf7838a8c719b7fd8b77663d5c28b11eb22aa4f3c364736f6c634300080a0033",
  "immutableReferences": {},
  "source": "// SPDX-License-Identifier: MIT\npragma solidity >=0.4.22 <0.9.0;\n\nimport \"@openzeppelin/contracts/token/ERC721/ERC721.sol\";\nimport \"@openzeppelin/contracts/utils/Counters.sol\";\n\ncontract NFTMinter is ERC721 {\n    using Counters for Counters.Counter;\n    Counters.Counter private _tokenIds;\n    // mapping for token URIs\n    mapping(uint256 => string) private _tokenURIs;\n\n    constructor() public ERC721(\"NftVerse\", \"NV\") {}\n\n    \n    //To map tokenID to tokenURI\n    function _setTokenURI(uint256 tokenId, string memory _tokenURI)\n        internal\n        virtual\n    {\n        require(\n            _exists(tokenId),\n            \"ERC721Metadata: URI set of nonexistent token\"\n        );\n        _tokenURIs[tokenId] = _tokenURI;\n    }\n\n    //function that will mint nft\n    function mint(string memory tokenURI) public returns (uint256) {\n        _tokenIds.increment();\n        uint256 newItemId = _tokenIds.current();\n        _safeMint(msg.sender, newItemId);\n        _setTokenURI(newItemId, tokenURI);\n        return newItemId;\n    }\n \n    //function that can return total NFT minted\n    function totalSupply() public view returns (uint256) {\n        return _tokenIds.current();\n    }\n}",
  "sourcePath": "C:\\Users\\comp\\Desktop\\VS\\project demo delte after use\\contracts\\NFTMinter.sol",
  "compiler": {
    "name": "solc",
    "version": "0.8.10+commit.fc410830.Emscripten.clang"
  },
  "schemaVersion": "3.4.3",
  "updatedAt": "2022-01-07T10:56:45.899Z",
  "devdoc": {
    "kind": "dev",
    "methods": {
      "approve(address,uint256)": {
        "details": "See {IERC721-approve}."
      },
      "balanceOf(address)": {
        "details": "See {IERC721-balanceOf}."
      },
      "getApproved(uint256)": {
        "details": "See {IERC721-getApproved}."
      },
      "isApprovedForAll(address,address)": {
        "details": "See {IERC721-isApprovedForAll}."
      },
      "name()": {
        "details": "See {IERC721Metadata-name}."
      },
      "ownerOf(uint256)": {
        "details": "See {IERC721-ownerOf}."
      },
      "safeTransferFrom(address,address,uint256)": {
        "details": "See {IERC721-safeTransferFrom}."
      },
      "safeTransferFrom(address,address,uint256,bytes)": {
        "details": "See {IERC721-safeTransferFrom}."
      },
      "setApprovalForAll(address,bool)": {
        "details": "See {IERC721-setApprovalForAll}."
      },
      "supportsInterface(bytes4)": {
        "details": "See {IERC165-supportsInterface}."
      },
      "symbol()": {
        "details": "See {IERC721Metadata-symbol}."
      },
      "tokenURI(uint256)": {
        "details": "See {IERC721Metadata-tokenURI}."
      },
      "transferFrom(address,address,uint256)": {
        "details": "See {IERC721-transferFrom}."
      }
    },
    "version": 1
  },
  "userdoc": {
    "kind": "user",
    "methods": {},
    "version": 1
  }
}